{
  "contractName": "Timestamped",
  "abi": [
    {
      "constant": true,
      "inputs": [],
      "name": "plus",
      "outputs": [
        {
          "name": "",
          "type": "uint256"
        }
      ],
      "payable": false,
      "stateMutability": "view",
      "type": "function"
    },
    {
      "constant": true,
      "inputs": [],
      "name": "bn",
      "outputs": [
        {
          "name": "",
          "type": "uint256"
        }
      ],
      "payable": false,
      "stateMutability": "view",
      "type": "function"
    },
    {
      "constant": true,
      "inputs": [],
      "name": "getBlockNumber",
      "outputs": [
        {
          "name": "",
          "type": "uint256"
        }
      ],
      "payable": false,
      "stateMutability": "view",
      "type": "function"
    },
    {
      "constant": false,
      "inputs": [
        {
          "name": "_ts",
          "type": "uint256"
        }
      ],
      "name": "setBlockTime",
      "outputs": [],
      "payable": false,
      "stateMutability": "nonpayable",
      "type": "function"
    },
    {
      "constant": true,
      "inputs": [],
      "name": "getBlockTime",
      "outputs": [
        {
          "name": "",
          "type": "uint256"
        }
      ],
      "payable": false,
      "stateMutability": "view",
      "type": "function"
    },
    {
      "constant": true,
      "inputs": [],
      "name": "owner",
      "outputs": [
        {
          "name": "",
          "type": "address"
        }
      ],
      "payable": false,
      "stateMutability": "view",
      "type": "function"
    },
    {
      "constant": false,
      "inputs": [
        {
          "name": "_plus",
          "type": "uint256"
        }
      ],
      "name": "setPlusTime",
      "outputs": [],
      "payable": false,
      "stateMutability": "nonpayable",
      "type": "function"
    },
    {
      "constant": false,
      "inputs": [
        {
          "name": "_bn",
          "type": "uint256"
        }
      ],
      "name": "setBlockNumber",
      "outputs": [],
      "payable": false,
      "stateMutability": "nonpayable",
      "type": "function"
    },
    {
      "constant": true,
      "inputs": [],
      "name": "ts",
      "outputs": [
        {
          "name": "",
          "type": "uint256"
        }
      ],
      "payable": false,
      "stateMutability": "view",
      "type": "function"
    },
    {
      "constant": false,
      "inputs": [
        {
          "name": "newOwner",
          "type": "address"
        }
      ],
      "name": "transferOwnership",
      "outputs": [],
      "payable": false,
      "stateMutability": "nonpayable",
      "type": "function"
    },
    {
      "anonymous": false,
      "inputs": [
        {
          "indexed": true,
          "name": "previousOwner",
          "type": "address"
        },
        {
          "indexed": true,
          "name": "newOwner",
          "type": "address"
        }
      ],
      "name": "OwnershipTransferred",
      "type": "event"
    }
  ],
  "bytecode": "0x6060604052600060015560006002556000600355336000806101000a81548173ffffffffffffffffffffffffffffffffffffffff021916908373ffffffffffffffffffffffffffffffffffffffff160217905550610596806100626000396000f3006060604052600436106100a4576000357c0100000000000000000000000000000000000000000000000000000000900463ffffffff16806318b0c3fd146100a957806336ef737d146100d257806342cbb15c146100fb578063758b1ce31461012457806387ceff09146101475780638da5cb5b1461017057806394f05c65146101c5578063a8c3c850146101e8578063e86d60bf1461020b578063f2fde38b14610234575b600080fd5b34156100b457600080fd5b6100bc61026d565b6040518082815260200191505060405180910390f35b34156100dd57600080fd5b6100e5610273565b6040518082815260200191505060405180910390f35b341561010657600080fd5b61010e610279565b6040518082815260200191505060405180910390f35b341561012f57600080fd5b6101456004808035906020019091905050610296565b005b341561015257600080fd5b61015a6102fb565b6040518082815260200191505060405180910390f35b341561017b57600080fd5b610183610320565b604051808273ffffffffffffffffffffffffffffffffffffffff1673ffffffffffffffffffffffffffffffffffffffff16815260200191505060405180910390f35b34156101d057600080fd5b6101e66004808035906020019091905050610345565b005b34156101f357600080fd5b61020960048080359060200190919050506103aa565b005b341561021657600080fd5b61021e61040f565b6040518082815260200191505060405180910390f35b341561023f57600080fd5b61026b600480803573ffffffffffffffffffffffffffffffffffffffff16906020019091905050610415565b005b60025481565b60035481565b600080600354111561028f576003549050610293565b4390505b90565b6000809054906101000a900473ffffffffffffffffffffffffffffffffffffffff1673ffffffffffffffffffffffffffffffffffffffff163373ffffffffffffffffffffffffffffffffffffffff161415156102f157600080fd5b8060018190555050565b60008060015411156103155760025460015401905061031d565b600254420190505b90565b6000809054906101000a900473ffffffffffffffffffffffffffffffffffffffff1681565b6000809054906101000a900473ffffffffffffffffffffffffffffffffffffffff1673ffffffffffffffffffffffffffffffffffffffff163373ffffffffffffffffffffffffffffffffffffffff161415156103a057600080fd5b8060028190555050565b6000809054906101000a900473ffffffffffffffffffffffffffffffffffffffff1673ffffffffffffffffffffffffffffffffffffffff163373ffffffffffffffffffffffffffffffffffffffff1614151561040557600080fd5b8060038190555050565b60015481565b6000809054906101000a900473ffffffffffffffffffffffffffffffffffffffff1673ffffffffffffffffffffffffffffffffffffffff163373ffffffffffffffffffffffffffffffffffffffff1614151561047057600080fd5b600073ffffffffffffffffffffffffffffffffffffffff168173ffffffffffffffffffffffffffffffffffffffff16141515156104ac57600080fd5b8073ffffffffffffffffffffffffffffffffffffffff166000809054906101000a900473ffffffffffffffffffffffffffffffffffffffff1673ffffffffffffffffffffffffffffffffffffffff167f8be0079c531659141344cd1fd0a4f28419497f9722a3daafe3b4186f6b6457e060405160405180910390a3806000806101000a81548173ffffffffffffffffffffffffffffffffffffffff021916908373ffffffffffffffffffffffffffffffffffffffff160217905550505600a165627a7a723058200f14f436db61244498e8afedf3c6d7d0af0f2d98c698a51729e3b549d7ae034c0029",
  "source": "pragma solidity ^0.4.18;\r\n\r\nimport \"zeppelin-solidity/contracts/ownership/Ownable.sol\";\r\n\r\n/**\r\n * @title Timestamped\r\n * @dev The Timestamped contract has sets dummy timestamp for method calls\r\n */\r\ncontract Timestamped is Ownable {\r\n\tuint256 public ts = 0;\r\n\tuint256 public plus = 0;\r\n\tuint256 public bn = 0;\r\n\r\n\tfunction setBlockTime(uint256 _ts) public onlyOwner {\r\n\t\tts = _ts;\r\n\t}\r\n\r\n\tfunction setPlusTime(uint256 _plus) public onlyOwner {\r\n\t\tplus = _plus;\r\n\t}\r\n\r\n\tfunction getBlockTime() public view returns (uint256) {\r\n\t\tif(ts > 0) {\r\n\t\t\treturn ts + plus;\r\n\t\t} else {\r\n\t\t\treturn block.timestamp + plus; \r\n\t\t}\r\n\t}\r\n\r\n\tfunction setBlockNumber(uint256 _bn) public onlyOwner {\r\n\t\tbn = _bn;\r\n\t}\r\n\r\n\tfunction getBlockNumber() public view returns (uint256) {\r\n\t\tif(bn > 0) {\r\n\t\t\treturn bn;\r\n\t\t} else {\r\n\t\t\treturn block.number; \r\n\t\t}\r\n\t}\r\n}",
  "sourcePath": "/Users/Projects/BeSafe/code/v4ul7-contracts/contracts/Timestamped.sol",
  "compiler": {
    "name": "solc",
    "version": "0.4.18+commit.9cf6e910.Emscripten.clang"
  },
  "schemaVersion": "1.0.1",
  "updatedAt": "2018-02-21T17:02:44.069Z"
}