{
  "contractName": "V4UL7Sale",
  "abi": [
    {
      "constant": false,
      "inputs": [],
      "name": "resume",
      "outputs": [],
      "payable": false,
      "stateMutability": "nonpayable",
      "type": "function"
    },
    {
      "constant": true,
      "inputs": [
        {
          "name": "_number",
          "type": "uint256"
        }
      ],
      "name": "fetchRound",
      "outputs": [
        {
          "name": "number",
          "type": "uint256"
        },
        {
          "name": "numTokensFrom",
          "type": "uint256"
        },
        {
          "name": "numTokensTo",
          "type": "uint256"
        },
        {
          "name": "price",
          "type": "uint256"
        }
      ],
      "payable": false,
      "stateMutability": "view",
      "type": "function"
    },
    {
      "constant": true,
      "inputs": [],
      "name": "isClose",
      "outputs": [
        {
          "name": "",
          "type": "bool"
        }
      ],
      "payable": false,
      "stateMutability": "view",
      "type": "function"
    },
    {
      "constant": true,
      "inputs": [],
      "name": "plus",
      "outputs": [
        {
          "name": "",
          "type": "uint256"
        }
      ],
      "payable": false,
      "stateMutability": "view",
      "type": "function"
    },
    {
      "constant": true,
      "inputs": [],
      "name": "fetchCurrentRound",
      "outputs": [
        {
          "name": "number",
          "type": "uint256"
        },
        {
          "name": "numTokensFrom",
          "type": "uint256"
        },
        {
          "name": "numTokensTo",
          "type": "uint256"
        },
        {
          "name": "price",
          "type": "uint256"
        }
      ],
      "payable": false,
      "stateMutability": "view",
      "type": "function"
    },
    {
      "constant": true,
      "inputs": [],
      "name": "bn",
      "outputs": [
        {
          "name": "",
          "type": "uint256"
        }
      ],
      "payable": false,
      "stateMutability": "view",
      "type": "function"
    },
    {
      "constant": false,
      "inputs": [],
      "name": "withdraw",
      "outputs": [],
      "payable": false,
      "stateMutability": "nonpayable",
      "type": "function"
    },
    {
      "constant": true,
      "inputs": [],
      "name": "getBlockNumber",
      "outputs": [
        {
          "name": "",
          "type": "uint256"
        }
      ],
      "payable": false,
      "stateMutability": "view",
      "type": "function"
    },
    {
      "constant": false,
      "inputs": [],
      "name": "close",
      "outputs": [],
      "payable": false,
      "stateMutability": "nonpayable",
      "type": "function"
    },
    {
      "constant": true,
      "inputs": [],
      "name": "wallet",
      "outputs": [
        {
          "name": "",
          "type": "address"
        }
      ],
      "payable": false,
      "stateMutability": "view",
      "type": "function"
    },
    {
      "constant": true,
      "inputs": [],
      "name": "usdToWei",
      "outputs": [
        {
          "name": "",
          "type": "uint256"
        }
      ],
      "payable": false,
      "stateMutability": "view",
      "type": "function"
    },
    {
      "constant": true,
      "inputs": [],
      "name": "endingTimestamp",
      "outputs": [
        {
          "name": "",
          "type": "uint256"
        }
      ],
      "payable": false,
      "stateMutability": "view",
      "type": "function"
    },
    {
      "constant": true,
      "inputs": [],
      "name": "totalEtherRaised",
      "outputs": [
        {
          "name": "",
          "type": "uint256"
        }
      ],
      "payable": false,
      "stateMutability": "view",
      "type": "function"
    },
    {
      "constant": false,
      "inputs": [
        {
          "name": "_ts",
          "type": "uint256"
        }
      ],
      "name": "setBlockTime",
      "outputs": [],
      "payable": false,
      "stateMutability": "nonpayable",
      "type": "function"
    },
    {
      "constant": true,
      "inputs": [
        {
          "name": "amount",
          "type": "uint256"
        }
      ],
      "name": "fetchMaximumRound",
      "outputs": [
        {
          "name": "number",
          "type": "uint256"
        },
        {
          "name": "numTokensFrom",
          "type": "uint256"
        },
        {
          "name": "numTokensTo",
          "type": "uint256"
        },
        {
          "name": "price",
          "type": "uint256"
        }
      ],
      "payable": false,
      "stateMutability": "view",
      "type": "function"
    },
    {
      "constant": false,
      "inputs": [],
      "name": "pause",
      "outputs": [],
      "payable": false,
      "stateMutability": "nonpayable",
      "type": "function"
    },
    {
      "constant": true,
      "inputs": [],
      "name": "getBlockTime",
      "outputs": [
        {
          "name": "",
          "type": "uint256"
        }
      ],
      "payable": false,
      "stateMutability": "view",
      "type": "function"
    },
    {
      "constant": true,
      "inputs": [],
      "name": "startingTimestamp",
      "outputs": [
        {
          "name": "",
          "type": "uint256"
        }
      ],
      "payable": false,
      "stateMutability": "view",
      "type": "function"
    },
    {
      "constant": true,
      "inputs": [
        {
          "name": "",
          "type": "uint256"
        }
      ],
      "name": "rounds",
      "outputs": [
        {
          "name": "number",
          "type": "uint256"
        },
        {
          "name": "numTokensFrom",
          "type": "uint256"
        },
        {
          "name": "numTokensTo",
          "type": "uint256"
        },
        {
          "name": "price",
          "type": "uint256"
        }
      ],
      "payable": false,
      "stateMutability": "view",
      "type": "function"
    },
    {
      "constant": true,
      "inputs": [],
      "name": "owner",
      "outputs": [
        {
          "name": "",
          "type": "address"
        }
      ],
      "payable": false,
      "stateMutability": "view",
      "type": "function"
    },
    {
      "constant": true,
      "inputs": [],
      "name": "maxTokenForSale",
      "outputs": [
        {
          "name": "",
          "type": "uint256"
        }
      ],
      "payable": false,
      "stateMutability": "view",
      "type": "function"
    },
    {
      "constant": false,
      "inputs": [
        {
          "name": "_plus",
          "type": "uint256"
        }
      ],
      "name": "setPlusTime",
      "outputs": [],
      "payable": false,
      "stateMutability": "nonpayable",
      "type": "function"
    },
    {
      "constant": true,
      "inputs": [
        {
          "name": "amount",
          "type": "uint256"
        }
      ],
      "name": "getEstimatedRound",
      "outputs": [
        {
          "components": [
            {
              "name": "number",
              "type": "uint256"
            },
            {
              "name": "numTokensFrom",
              "type": "uint256"
            },
            {
              "name": "numTokensTo",
              "type": "uint256"
            },
            {
              "name": "price",
              "type": "uint256"
            }
          ],
          "name": "",
          "type": "tuple"
        }
      ],
      "payable": false,
      "stateMutability": "view",
      "type": "function"
    },
    {
      "constant": true,
      "inputs": [],
      "name": "tokenAddress",
      "outputs": [
        {
          "name": "",
          "type": "address"
        }
      ],
      "payable": false,
      "stateMutability": "view",
      "type": "function"
    },
    {
      "constant": true,
      "inputs": [],
      "name": "getCurrentRound",
      "outputs": [
        {
          "components": [
            {
              "name": "number",
              "type": "uint256"
            },
            {
              "name": "numTokensFrom",
              "type": "uint256"
            },
            {
              "name": "numTokensTo",
              "type": "uint256"
            },
            {
              "name": "price",
              "type": "uint256"
            }
          ],
          "name": "",
          "type": "tuple"
        }
      ],
      "payable": false,
      "stateMutability": "view",
      "type": "function"
    },
    {
      "constant": true,
      "inputs": [
        {
          "name": "amount",
          "type": "uint256"
        }
      ],
      "name": "getMaximumRound",
      "outputs": [
        {
          "components": [
            {
              "name": "number",
              "type": "uint256"
            },
            {
              "name": "numTokensFrom",
              "type": "uint256"
            },
            {
              "name": "numTokensTo",
              "type": "uint256"
            },
            {
              "name": "price",
              "type": "uint256"
            }
          ],
          "name": "",
          "type": "tuple"
        }
      ],
      "payable": false,
      "stateMutability": "view",
      "type": "function"
    },
    {
      "constant": false,
      "inputs": [
        {
          "name": "_bn",
          "type": "uint256"
        }
      ],
      "name": "setBlockNumber",
      "outputs": [],
      "payable": false,
      "stateMutability": "nonpayable",
      "type": "function"
    },
    {
      "constant": true,
      "inputs": [],
      "name": "ethToUsd",
      "outputs": [
        {
          "name": "",
          "type": "uint256"
        }
      ],
      "payable": false,
      "stateMutability": "view",
      "type": "function"
    },
    {
      "constant": true,
      "inputs": [],
      "name": "isPaused",
      "outputs": [
        {
          "name": "",
          "type": "bool"
        }
      ],
      "payable": false,
      "stateMutability": "view",
      "type": "function"
    },
    {
      "constant": true,
      "inputs": [],
      "name": "totalTokenSold",
      "outputs": [
        {
          "name": "",
          "type": "uint256"
        }
      ],
      "payable": false,
      "stateMutability": "view",
      "type": "function"
    },
    {
      "constant": true,
      "inputs": [
        {
          "name": "value",
          "type": "uint256"
        }
      ],
      "name": "calculate",
      "outputs": [
        {
          "name": "",
          "type": "uint256"
        },
        {
          "name": "",
          "type": "uint256"
        }
      ],
      "payable": false,
      "stateMutability": "view",
      "type": "function"
    },
    {
      "constant": true,
      "inputs": [
        {
          "name": "",
          "type": "address"
        }
      ],
      "name": "etherRaisedPerWallet",
      "outputs": [
        {
          "name": "",
          "type": "uint256"
        }
      ],
      "payable": false,
      "stateMutability": "view",
      "type": "function"
    },
    {
      "constant": false,
      "inputs": [
        {
          "name": "_to",
          "type": "address"
        },
        {
          "name": "_value",
          "type": "uint256"
        },
        {
          "name": "_message",
          "type": "string"
        }
      ],
      "name": "transferManual",
      "outputs": [
        {
          "name": "",
          "type": "bool"
        }
      ],
      "payable": false,
      "stateMutability": "nonpayable",
      "type": "function"
    },
    {
      "constant": false,
      "inputs": [
        {
          "name": "_wallet",
          "type": "address"
        }
      ],
      "name": "setWallet",
      "outputs": [],
      "payable": false,
      "stateMutability": "nonpayable",
      "type": "function"
    },
    {
      "constant": true,
      "inputs": [
        {
          "name": "value",
          "type": "uint256"
        },
        {
          "name": "amount",
          "type": "uint256"
        }
      ],
      "name": "isValidPurchase",
      "outputs": [
        {
          "name": "",
          "type": "bool"
        }
      ],
      "payable": false,
      "stateMutability": "view",
      "type": "function"
    },
    {
      "constant": true,
      "inputs": [],
      "name": "ts",
      "outputs": [
        {
          "name": "",
          "type": "uint256"
        }
      ],
      "payable": false,
      "stateMutability": "view",
      "type": "function"
    },
    {
      "constant": false,
      "inputs": [
        {
          "name": "beneficiary",
          "type": "address"
        }
      ],
      "name": "buy",
      "outputs": [],
      "payable": true,
      "stateMutability": "payable",
      "type": "function"
    },
    {
      "constant": false,
      "inputs": [
        {
          "name": "newOwner",
          "type": "address"
        }
      ],
      "name": "transferOwnership",
      "outputs": [],
      "payable": false,
      "stateMutability": "nonpayable",
      "type": "function"
    },
    {
      "constant": true,
      "inputs": [
        {
          "name": "amount",
          "type": "uint256"
        }
      ],
      "name": "fetchEstimatedRound",
      "outputs": [
        {
          "name": "number",
          "type": "uint256"
        },
        {
          "name": "numTokensFrom",
          "type": "uint256"
        },
        {
          "name": "numTokensTo",
          "type": "uint256"
        },
        {
          "name": "price",
          "type": "uint256"
        }
      ],
      "payable": false,
      "stateMutability": "view",
      "type": "function"
    },
    {
      "constant": true,
      "inputs": [],
      "name": "token",
      "outputs": [
        {
          "name": "",
          "type": "address"
        }
      ],
      "payable": false,
      "stateMutability": "view",
      "type": "function"
    },
    {
      "inputs": [
        {
          "name": "_token",
          "type": "address"
        },
        {
          "name": "_wallet",
          "type": "address"
        }
      ],
      "payable": false,
      "stateMutability": "nonpayable",
      "type": "constructor"
    },
    {
      "payable": true,
      "stateMutability": "payable",
      "type": "fallback"
    },
    {
      "anonymous": false,
      "inputs": [
        {
          "indexed": false,
          "name": "_wallet",
          "type": "address"
        },
        {
          "indexed": false,
          "name": "_timestamp",
          "type": "uint256"
        }
      ],
      "name": "WalletChange",
      "type": "event"
    },
    {
      "anonymous": false,
      "inputs": [
        {
          "indexed": false,
          "name": "_isPaused",
          "type": "bool"
        },
        {
          "indexed": false,
          "name": "_timestamp",
          "type": "uint256"
        }
      ],
      "name": "PausedChange",
      "type": "event"
    },
    {
      "anonymous": false,
      "inputs": [
        {
          "indexed": true,
          "name": "_purchaser",
          "type": "address"
        },
        {
          "indexed": true,
          "name": "_beneficiary",
          "type": "address"
        },
        {
          "indexed": false,
          "name": "_value",
          "type": "uint256"
        },
        {
          "indexed": false,
          "name": "_amount",
          "type": "uint256"
        },
        {
          "indexed": false,
          "name": "_timestamp",
          "type": "uint256"
        }
      ],
      "name": "TokenPurchase",
      "type": "event"
    },
    {
      "anonymous": false,
      "inputs": [
        {
          "indexed": true,
          "name": "_from",
          "type": "address"
        },
        {
          "indexed": true,
          "name": "_to",
          "type": "address"
        },
        {
          "indexed": false,
          "name": "_value",
          "type": "uint256"
        },
        {
          "indexed": false,
          "name": "_message",
          "type": "string"
        }
      ],
      "name": "TransferManual",
      "type": "event"
    },
    {
      "anonymous": false,
      "inputs": [
        {
          "indexed": true,
          "name": "previousOwner",
          "type": "address"
        },
        {
          "indexed": true,
          "name": "newOwner",
          "type": "address"
        }
      ],
      "name": "OwnershipTransferred",
      "type": "event"
    }
  ],
  "bytecode": "0x60606040526000600155600060025560006003556103e8600655600654670de0b6b3a764000081151561002e57fe5b04600755635a497a00600855635c2aad806009556af8277896582678ac000000600a556000600e60146101000a81548160ff0219169083151502179055506000600e60156101000a81548160ff021916908315150217905550341561009257600080fd5b6040516040806200239c83398101604052808051906020019091908051906020019091905050336000806101000a81548173ffffffffffffffffffffffffffffffffffffffff021916908373ffffffffffffffffffffffffffffffffffffffff16021790555081600460006101000a81548173ffffffffffffffffffffffffffffffffffffffff021916908373ffffffffffffffffffffffffffffffffffffffff16021790555080600e60006101000a81548173ffffffffffffffffffffffffffffffffffffffff021916908373ffffffffffffffffffffffffffffffffffffffff16021790555060806040519081016040528060008152602001600081526020016a14adf4b7320334b9000000815260200165b5e620f48000815250600f60006004811015156101bf57fe5b6004020160008201518160000155602082015181600101556040820151816002015560608201518160030155905050608060405190810160405280600181526020016a14adf4b7320334b900000081526020016a35c4490f820855e1000000815260200165e35fa931a000815250600f600160048110151561023d57fe5b6004020160008201518160000155602082015181600101556040820151816002015560608201518160030155905050608060405190810160405280600281526020016a35c4490f820855e100000081526020016a887c1bec4a1528c5000000815260200166013e52b9abe000815250600f60026004811015156102bc57fe5b6004020160008201518160000155602082015181600101556040820151816002015560608201518160030155905050608060405190810160405280600381526020016a887c1bec4a1528c500000081526020016af8277896582678ac00000081526020016601550f7dca7000815250600f600360048110151561033b57fe5b60040201600082015181600001556020820151816001015560408201518160020155606082015181600301559050505050612020806200037c6000396000f3006060604052600436106101ee576000357c0100000000000000000000000000000000000000000000000000000000900463ffffffff168063046f7da2146101f9578063124f9cca1461020e5780631338f4931461025a57806318b0c3fd1461028757806323ebde86146102b057806336ef737d146102ee5780633ccfd60b1461031757806342cbb15c1461032c57806343d726d614610355578063521eb2731461036a5780635380aa00146103bf5780635e5294b7146103e8578063691a584214610411578063758b1ce31461043a578063812270f91461045d5780638456cb59146104a957806387ceff09146104be57806388786272146104e75780638c65c81f146105105780638da5cb5b1461055c578063939ea419146105b157806394f05c65146105da5780639bae56da146105fd5780639d76ea5814610634578063a32bf59714610689578063a7ffb2db146106b2578063a8c3c850146106e9578063ab4766e81461070c578063b187bd2614610735578063b5f7f63614610762578063b9d92de81461078b578063d46ba0c9146107c9578063dc9f062214610816578063deaa59df146108b3578063e4b1f93a146108ec578063e86d60bf14610930578063f088d54714610959578063f2fde38b14610987578063f6e05333146109c0578063fc0c546a14610a0c575b6101f733610a61565b005b341561020457600080fd5b61020c610d53565b005b341561021957600080fd5b61022f6004808035906020019091905050610e1d565b6040518085815260200184815260200183815260200182815260200194505050505060405180910390f35b341561026557600080fd5b61026d610e98565b604051808215151515815260200191505060405180910390f35b341561029257600080fd5b61029a610eab565b6040518082815260200191505060405180910390f35b34156102bb57600080fd5b6102c3610eb1565b6040518085815260200184815260200183815260200182815260200194505050505060405180910390f35b34156102f957600080fd5b610301610eec565b6040518082815260200191505060405180910390f35b341561032257600080fd5b61032a610ef2565b005b341561033757600080fd5b61033f610fc8565b6040518082815260200191505060405180910390f35b341561036057600080fd5b610368610fe5565b005b341561037557600080fd5b61037d611254565b604051808273ffffffffffffffffffffffffffffffffffffffff1673ffffffffffffffffffffffffffffffffffffffff16815260200191505060405180910390f35b34156103ca57600080fd5b6103d261127a565b6040518082815260200191505060405180910390f35b34156103f357600080fd5b6103fb611280565b6040518082815260200191505060405180910390f35b341561041c57600080fd5b610424611286565b6040518082815260200191505060405180910390f35b341561044557600080fd5b61045b600480803590602001909190505061128c565b005b341561046857600080fd5b61047e60048080359060200190919050506112f1565b6040518085815260200184815260200183815260200182815260200194505050505060405180910390f35b34156104b457600080fd5b6104bc61132e565b005b34156104c957600080fd5b6104d16113f8565b6040518082815260200191505060405180910390f35b34156104f257600080fd5b6104fa61141d565b6040518082815260200191505060405180910390f35b341561051b57600080fd5b6105316004808035906020019091905050611423565b6040518085815260200184815260200183815260200182815260200194505050505060405180910390f35b341561056757600080fd5b61056f611458565b604051808273ffffffffffffffffffffffffffffffffffffffff1673ffffffffffffffffffffffffffffffffffffffff16815260200191505060405180910390f35b34156105bc57600080fd5b6105c461147d565b6040518082815260200191505060405180910390f35b34156105e557600080fd5b6105fb6004808035906020019091905050611483565b005b341561060857600080fd5b61061e60048080359060200190919050506114e8565b6040518082815260200191505060405180910390f35b341561063f57600080fd5b6106476115d3565b604051808273ffffffffffffffffffffffffffffffffffffffff1673ffffffffffffffffffffffffffffffffffffffff16815260200191505060405180910390f35b341561069457600080fd5b61069c6115f9565b6040518082815260200191505060405180910390f35b34156106bd57600080fd5b6106d360048080359060200190919050506116b4565b6040518082815260200191505060405180910390f35b34156106f457600080fd5b61070a6004808035906020019091905050611750565b005b341561071757600080fd5b61071f6117b5565b6040518082815260200191505060405180910390f35b341561074057600080fd5b6107486117bb565b604051808215151515815260200191505060405180910390f35b341561076d57600080fd5b6107756117ce565b6040518082815260200191505060405180910390f35b341561079657600080fd5b6107ac60048080359060200190919050506117d4565b604051808381526020018281526020019250505060405180910390f35b34156107d457600080fd5b610800600480803573ffffffffffffffffffffffffffffffffffffffff16906020019091905050611949565b6040518082815260200191505060405180910390f35b341561082157600080fd5b610899600480803573ffffffffffffffffffffffffffffffffffffffff1690602001909190803590602001909190803590602001908201803590602001908080601f01602080910402602001604051908101604052809392919081815260200183838082843782019150505050505091905050611961565b604051808215151515815260200191505060405180910390f35b34156108be57600080fd5b6108ea600480803573ffffffffffffffffffffffffffffffffffffffff16906020019091905050611bdb565b005b34156108f757600080fd5b6109166004808035906020019091908035906020019091905050611ce5565b604051808215151515815260200191505060405180910390f35b341561093b57600080fd5b610943611d80565b6040518082815260200191505060405180910390f35b610985600480803573ffffffffffffffffffffffffffffffffffffffff16906020019091905050610a61565b005b341561099257600080fd5b6109be600480803573ffffffffffffffffffffffffffffffffffffffff16906020019091905050611d86565b005b34156109cb57600080fd5b6109e16004808035906020019091905050611edb565b6040518085815260200184815260200183815260200182815260200194505050505060405180910390f35b3415610a1757600080fd5b610a1f611f18565b604051808273ffffffffffffffffffffffffffffffffffffffff1673ffffffffffffffffffffffffffffffffffffffff16815260200191505060405180910390f35b60008060008073ffffffffffffffffffffffffffffffffffffffff168473ffffffffffffffffffffffffffffffffffffffff1614151515610aa157600080fd5b349250610aad836117d4565b915091506000811115610b1057610acd8184611f3e90919063ffffffff16565b92503373ffffffffffffffffffffffffffffffffffffffff166108fc829081150290604051600060405180830381858888f193505050501515610b0f57600080fd5b5b610b1a8383611ce5565b1515610b2557600080fd5b610b3a82600b54611f5790919063ffffffff16565b600b81905550610b5583600c54611f5790919063ffffffff16565b600c81905550610bad83600d60003373ffffffffffffffffffffffffffffffffffffffff1673ffffffffffffffffffffffffffffffffffffffff16815260200190815260200160002054611f5790919063ffffffff16565b600d60003373ffffffffffffffffffffffffffffffffffffffff1673ffffffffffffffffffffffffffffffffffffffff16815260200190815260200160002081905550600460009054906101000a900473ffffffffffffffffffffffffffffffffffffffff1673ffffffffffffffffffffffffffffffffffffffff1663a9059cbb85846000604051602001526040518363ffffffff167c0100000000000000000000000000000000000000000000000000000000028152600401808373ffffffffffffffffffffffffffffffffffffffff1673ffffffffffffffffffffffffffffffffffffffff16815260200182815260200192505050602060405180830381600087803b1515610cbd57600080fd5b6102c65a03f11515610cce57600080fd5b50505060405180519050508373ffffffffffffffffffffffffffffffffffffffff163373ffffffffffffffffffffffffffffffffffffffff167efe0e12b43090c1fc19a34aefa5cc138a4eeafc60ab800f855c730b3fb9480e85854260405180848152602001838152602001828152602001935050505060405180910390a350505050565b6000809054906101000a900473ffffffffffffffffffffffffffffffffffffffff1673ffffffffffffffffffffffffffffffffffffffff163373ffffffffffffffffffffffffffffffffffffffff16141515610dae57600080fd5b6000600e60156101000a81548160ff0219169083151502179055507f5fde3aef025847f9bfcea817a81a54bbc842a82564262f76b81f01deca2c2e88600e60159054906101000a900460ff164260405180831515151581526020018281526020019250505060405180910390a1565b600080600080610e2b611fcb565b600f86600481101515610e3a57fe5b6004020160806040519081016040529081600082015481526020016001820154815260200160028201548152602001600382015481525050905080600001519450806020015193508060400151925080606001519150509193509193565b600e60149054906101000a900460ff1681565b60025481565b600080600080610ebf611fcb565b610ec76115f9565b9050806000015194508060200151935080604001519250806060015191505090919293565b60035481565b6000809054906101000a900473ffffffffffffffffffffffffffffffffffffffff1673ffffffffffffffffffffffffffffffffffffffff163373ffffffffffffffffffffffffffffffffffffffff16141515610f4d57600080fd5b600e60009054906101000a900473ffffffffffffffffffffffffffffffffffffffff1673ffffffffffffffffffffffffffffffffffffffff166108fc3073ffffffffffffffffffffffffffffffffffffffff16319081150290604051600060405180830381858888f193505050501515610fc657600080fd5b565b6000806003541115610fde576003549050610fe2565b4390505b90565b60008060009054906101000a900473ffffffffffffffffffffffffffffffffffffffff1673ffffffffffffffffffffffffffffffffffffffff163373ffffffffffffffffffffffffffffffffffffffff1614151561104257600080fd5b600460009054906101000a900473ffffffffffffffffffffffffffffffffffffffff1673ffffffffffffffffffffffffffffffffffffffff166370a08231306000604051602001526040518263ffffffff167c0100000000000000000000000000000000000000000000000000000000028152600401808273ffffffffffffffffffffffffffffffffffffffff1673ffffffffffffffffffffffffffffffffffffffff168152602001915050602060405180830381600087803b151561110757600080fd5b6102c65a03f1151561111857600080fd5b505050604051805190509050600460009054906101000a900473ffffffffffffffffffffffffffffffffffffffff1673ffffffffffffffffffffffffffffffffffffffff1663a9059cbb6000809054906101000a900473ffffffffffffffffffffffffffffffffffffffff16836000604051602001526040518363ffffffff167c0100000000000000000000000000000000000000000000000000000000028152600401808373ffffffffffffffffffffffffffffffffffffffff1673ffffffffffffffffffffffffffffffffffffffff16815260200182815260200192505050602060405180830381600087803b151561121257600080fd5b6102c65a03f1151561122357600080fd5b5050506040518051905050611236610ef2565b6001600e60146101000a81548160ff02191690831515021790555050565b600e60009054906101000a900473ffffffffffffffffffffffffffffffffffffffff1681565b60075481565b60095481565b600c5481565b6000809054906101000a900473ffffffffffffffffffffffffffffffffffffffff1673ffffffffffffffffffffffffffffffffffffffff163373ffffffffffffffffffffffffffffffffffffffff161415156112e757600080fd5b8060018190555050565b6000806000806112ff611fcb565b611308866116b4565b905080600001519450806020015193508060400151925080606001519150509193509193565b6000809054906101000a900473ffffffffffffffffffffffffffffffffffffffff1673ffffffffffffffffffffffffffffffffffffffff163373ffffffffffffffffffffffffffffffffffffffff1614151561138957600080fd5b6001600e60156101000a81548160ff0219169083151502179055507f5fde3aef025847f9bfcea817a81a54bbc842a82564262f76b81f01deca2c2e88600e60159054906101000a900460ff164260405180831515151581526020018281526020019250505060405180910390a1565b60008060015411156114125760025460015401905061141a565b600254420190505b90565b60085481565b600f8160048110151561143257fe5b600402016000915090508060000154908060010154908060020154908060030154905084565b6000809054906101000a900473ffffffffffffffffffffffffffffffffffffffff1681565b600a5481565b6000809054906101000a900473ffffffffffffffffffffffffffffffffffffffff1673ffffffffffffffffffffffffffffffffffffffff163373ffffffffffffffffffffffffffffffffffffffff161415156114de57600080fd5b8060028190555050565b6114f0611fcb565b60008090505b600481101561157f5782600b5401600f8260048110151561151357fe5b6004020160010154111561157257600f6001820360048110151561153357fe5b600402016080604051908101604052908160008201548152602001600182015481526020016002820154815260200160038201548152505091506115cd565b80806001019150506114f6565b600f600160040360048110151561159257fe5b600402016080604051908101604052908160008201548152602001600182015481526020016002820154815260200160038201548152505091505b50919050565b600560009054906101000a900473ffffffffffffffffffffffffffffffffffffffff1681565b611601611fcb565b60008090505b60048110156116af57600b54600f8260048110151561162257fe5b60040201600101541115801561164f5750600f8160048110151561164257fe5b6004020160020154600b54105b156116a257600f8160048110151561166357fe5b600402016080604051908101604052908160008201548152602001600182015481526020016002820154815260200160038201548152505091506116b0565b8080600101915050611607565b5b5090565b6116bc611fcb565b60008090505b600481101561174957600f816004811015156116da57fe5b600402016002015483600b540111151561173c57600f816004811015156116fd57fe5b6004020160806040519081016040529081600082015481526020016001820154815260200160028201548152602001600382015481525050915061174a565b80806001019150506116c2565b5b50919050565b6000809054906101000a900473ffffffffffffffffffffffffffffffffffffffff1673ffffffffffffffffffffffffffffffffffffffff163373ffffffffffffffffffffffffffffffffffffffff161415156117ab57600080fd5b8060038190555050565b60065481565b600e60159054906101000a900460ff1681565b600b5481565b60008060006117e1611fcb565b60008060008094505b6000881115611934576117fc856114e8565b935061182961181686600b54611f5790919063ffffffff16565b8560400151611f3e90919063ffffffff16565b925061185c846060015161184e670de0b6b3a76400008b611f7590919063ffffffff16565b611fb090919063ffffffff16565b9150600f600160040360048110151561187157fe5b6004020160000154846000015114156118a5576000831480156118945750600088115b156118a45784889650965061193f565b5b81831015156118d2576118c18286611f5790919063ffffffff16565b94506000975084889650965061193f565b611903670de0b6b3a76400006118f5866060015186611f7590919063ffffffff16565b611fb090919063ffffffff16565b90506119188386611f5790919063ffffffff16565b945061192d8189611f3e90919063ffffffff16565b97506117ea565b600088819150965096505b5050505050915091565b600d6020528060005260406000206000915090505481565b60008060009054906101000a900473ffffffffffffffffffffffffffffffffffffffff1673ffffffffffffffffffffffffffffffffffffffff163373ffffffffffffffffffffffffffffffffffffffff161415156119be57600080fd5b600073ffffffffffffffffffffffffffffffffffffffff168473ffffffffffffffffffffffffffffffffffffffff16141515156119fa57600080fd5b600460009054906101000a900473ffffffffffffffffffffffffffffffffffffffff1673ffffffffffffffffffffffffffffffffffffffff1663a9059cbb85856000604051602001526040518363ffffffff167c0100000000000000000000000000000000000000000000000000000000028152600401808373ffffffffffffffffffffffffffffffffffffffff1673ffffffffffffffffffffffffffffffffffffffff16815260200182815260200192505050602060405180830381600087803b1515611ac757600080fd5b6102c65a03f11515611ad857600080fd5b50505060405180519050508373ffffffffffffffffffffffffffffffffffffffff163373ffffffffffffffffffffffffffffffffffffffff167f1dd72454c96f602d3ea98635bc511bd8136bd9b966a15dfe34e83da17a7ddb1d85856040518083815260200180602001828103825283818151815260200191508051906020019080838360005b83811015611b7a578082015181840152602081019050611b5f565b50505050905090810190601f168015611ba75780820380516001836020036101000a031916815260200191505b50935050505060405180910390a3611bca83600b54611f5790919063ffffffff16565b600b81905550600190509392505050565b6000809054906101000a900473ffffffffffffffffffffffffffffffffffffffff1673ffffffffffffffffffffffffffffffffffffffff163373ffffffffffffffffffffffffffffffffffffffff16141515611c3657600080fd5b80600e60006101000a81548173ffffffffffffffffffffffffffffffffffffffff021916908373ffffffffffffffffffffffffffffffffffffffff1602179055507f1ca2d6b7b7c34453b96dcab339cb27e4bcec1ff5f06598f6adaa2e974554f8fb8142604051808373ffffffffffffffffffffffffffffffffffffffff1673ffffffffffffffffffffffffffffffffffffffff1681526020018281526020019250505060405180910390a150565b6000806000804260085411158015611cff57506009544211155b92506000861415915084611d20600b54600a54611f3e90919063ffffffff16565b10158015611d2e5750600085115b9050828015611d3a5750815b8015611d435750805b8015611d5c5750600e60149054906101000a900460ff16155b8015611d755750600e60159054906101000a900460ff16155b935050505092915050565b60015481565b6000809054906101000a900473ffffffffffffffffffffffffffffffffffffffff1673ffffffffffffffffffffffffffffffffffffffff163373ffffffffffffffffffffffffffffffffffffffff16141515611de157600080fd5b600073ffffffffffffffffffffffffffffffffffffffff168173ffffffffffffffffffffffffffffffffffffffff1614151515611e1d57600080fd5b8073ffffffffffffffffffffffffffffffffffffffff166000809054906101000a900473ffffffffffffffffffffffffffffffffffffffff1673ffffffffffffffffffffffffffffffffffffffff167f8be0079c531659141344cd1fd0a4f28419497f9722a3daafe3b4186f6b6457e060405160405180910390a3806000806101000a81548173ffffffffffffffffffffffffffffffffffffffff021916908373ffffffffffffffffffffffffffffffffffffffff16021790555050565b600080600080611ee9611fcb565b611ef2866114e8565b905080600001519450806020015193508060400151925080606001519150509193509193565b600460009054906101000a900473ffffffffffffffffffffffffffffffffffffffff1681565b6000828211151515611f4c57fe5b818303905092915050565b6000808284019050838110151515611f6b57fe5b8091505092915050565b6000806000841415611f8a5760009150611fa9565b8284029050828482811515611f9b57fe5b04141515611fa557fe5b8091505b5092915050565b6000808284811515611fbe57fe5b0490508091505092915050565b6080604051908101604052806000815260200160008152602001600081526020016000815250905600a165627a7a723058208d78618ea3ed464f11edf8a8b1f0806bf33b4cdd553b4bb06e6e770b9099d8940029",
  "source": "pragma solidity ^0.4.18;\r\n\r\nimport \"zeppelin-solidity/contracts/math/SafeMath.sol\";\r\nimport \"zeppelin-solidity/contracts/ownership/Ownable.sol\";\r\n\r\nimport \"./V4UL7.sol\";\r\nimport \"./Timestamped.sol\";\r\n\r\n\r\n/**\r\n* @title V4UL7Sale\r\n* @dev This is ICO Contract. \r\n* This class accepts the token address as argument to talk with contract.\r\n* Once contract is deployed, funds are transferred to ICO smart contract address and then distributed with investor.\r\n* Sending funds to this ensures that no more than desired tokens are sold.\r\n*/\r\ncontract V4UL7Sale is Ownable, Timestamped {\r\n\tusing SafeMath for uint256;\r\n\r\n\t// token\r\n\tV4UL7 public token;\r\n\r\n\t// reference addresses\r\n\taddress public tokenAddress;\r\n\r\n\t// ether to usd price \r\n\tuint256 public ethToUsd = 1000;\r\n\r\n\t// usd to wei price\r\n\tuint256 public usdToWei = 1 ether / ethToUsd;\r\n\r\n\t// timestamp when sale starts\r\n\tuint256 public startingTimestamp  = 1514764800;\r\n\r\n\t// timestamp when sale end\r\n\tuint256 public endingTimestamp  = 1514764800 + 1 years;\r\n\r\n\t// amount of token to be sold on sale\r\n\tuint256 public maxTokenForSale = 300000000 * 1E18;\r\n\r\n\t// amount of token sold so far\r\n\tuint256 public totalTokenSold;\r\n\r\n\t// amount of ether raised in sale\r\n\tuint256 public totalEtherRaised;\r\n\r\n\t// ether raised per wallet\r\n\tmapping(address => uint256) public etherRaisedPerWallet;\r\n\r\n\t// walle which will receive the ether funding\r\n\taddress public wallet;\r\n\r\n\t// is contract close and ended\r\n\tbool public isClose = false;\r\n\r\n\t// is contract paused\r\n\tbool public isPaused = false;\r\n\t\r\n\t// wallet changed\r\n\tevent WalletChange(address _wallet, uint256 _timestamp);\r\n\r\n\t// status changed\r\n\tevent PausedChange(bool _isPaused, uint256 _timestamp);\r\n\r\n\t// token purchsae event\r\n\tevent TokenPurchase(address indexed _purchaser, address indexed _beneficiary, uint256 _value, uint256 _amount, uint256 _timestamp);\r\n\r\n\t// manual transfer by admin for external purchase\r\n\tevent TransferManual(address indexed _from, address indexed _to, uint256 _value, string _message);\r\n\r\n\tstruct RoundStruct {\r\n\t\tuint256 number;\r\n\t\tuint256 numTokensFrom;\r\n\t\tuint256 numTokensTo;\r\n\t\tuint256 price;\r\n\t}\r\n\r\n\tRoundStruct[4] public rounds;\r\n\r\n\r\n\t/**\r\n\t* @dev Constructor that initializes token contract with token address in parameter\r\n\t*/\r\n\tfunction V4UL7Sale(address _token, address _wallet) public {\r\n\t\t// set token\r\n\t\ttoken = V4UL7(_token);\r\n\r\n\t\t// set wallet\r\n\t\twallet = _wallet;\r\n\r\n\t\t// setup rounds\r\n\t\trounds[0] = RoundStruct(0,            0,   25000000E18, 0.000200 ether);\r\n\t\trounds[1] = RoundStruct(1,  25000000E18,   65000000E18, 0.000250 ether);\r\n\t\trounds[2] = RoundStruct(2,  65000000E18,  165000000E18, 0.000350 ether);\r\n\t\trounds[3] = RoundStruct(3, 165000000E18,  300000000E18, 0.000375 ether);\r\n\t}\r\n\r\n\t/**\r\n\t * @dev Function that validates if the purchase is valid by verifying the parameters\r\n\t *\r\n\t * @param value Amount of ethers sent\r\n\t * @param amount Total number of tokens user is trying to buy.\r\n\t *\r\n\t * @return checks various conditions and returns the bool result indicating validity.\r\n\t */\r\n\tfunction isValidPurchase(uint256 value, uint256 amount) public constant returns (bool) {\r\n\t\t// check if timestamp is falling in the range\r\n\t\tbool validTimestamp = startingTimestamp <= block.timestamp && block.timestamp <= endingTimestamp;\r\n\r\n\t\t// check if value of the ether is valid\r\n\t\tbool validValue = value != 0;\r\n\r\n\t\t// check if the tokens available in contract for sale\r\n\t\tbool validAmount = maxTokenForSale.sub(totalTokenSold) >= amount && amount > 0;\r\n\r\n\t\t// validate if all conditions are met\r\n\t\treturn validTimestamp && validValue && validAmount && !isClose && !isPaused;\r\n\t}\r\n\r\n\t/**\r\n\t * @dev Function that returns the round by number\r\n\t *\r\n\t * @return returns the round properties\r\n\t */\r\n\tfunction fetchRound(uint256 _number) public constant returns (uint256 number, uint256 numTokensFrom, uint256 numTokensTo, uint256 price) {\r\n\t\tRoundStruct memory round = rounds[_number];\r\n\t\t\r\n\t\tnumber = round.number;\r\n\t\tnumTokensFrom = round.numTokensFrom;\r\n\t\tnumTokensTo = round.numTokensTo;\r\n\t\tprice = round.price;\r\n\t}\r\n\r\n\t/**\r\n\t * @dev Function that returns the current round\r\n\t *\r\n\t * @return checks various conditions and returns the current round.\r\n\t */\r\n\tfunction getCurrentRound() public constant returns (RoundStruct) {\r\n\t\tfor(uint256 i = 0 ; i < rounds.length ; i ++) {\r\n\t\t\tif(rounds[i].numTokensFrom <= totalTokenSold && totalTokenSold < rounds[i].numTokensTo) {\r\n\t\t\t\treturn rounds[i];\r\n\t\t\t}\r\n\t\t}\r\n\t}\r\n\r\n\t/**\r\n\t * @dev Function that returns the current round properties\r\n\t *\r\n\t * @return checks various conditions and returns the current round.\r\n\t */\r\n\tfunction fetchCurrentRound() public constant returns (uint256 number, uint256 numTokensFrom, uint256 numTokensTo, uint256 price) {\r\n\t\tRoundStruct memory round = getCurrentRound();\r\n\t\t\r\n\t\tnumber = round.number;\r\n\t\tnumTokensFrom = round.numTokensFrom;\r\n\t\tnumTokensTo = round.numTokensTo;\r\n\t\tprice = round.price;\r\n\t}\r\n\r\n\t/**\r\n\t * @dev Function that returns the estimate token round by sending amount\r\n\t *\r\n\t * @param amount Amount of tokens expected\r\n\t *\r\n\t * @return checks various conditions and returns the estimate token round.\r\n\t */\r\n\tfunction getEstimatedRound(uint256 amount) public constant returns (RoundStruct) {\r\n\t\tfor(uint256 i = 0 ; i < rounds.length ; i ++) {\r\n\t\t\tif(rounds[i].numTokensFrom > (totalTokenSold + amount)) {\r\n\t\t\t\treturn rounds[i - 1];\r\n\t\t\t}\r\n\t\t}\r\n\r\n\t\treturn rounds[rounds.length - 1];\r\n\t}\r\n\r\n\r\n\t/**\r\n\t * @dev Function that returns the estimate token round by sending amount\r\n\t *\r\n\t * @param amount Amount of tokens expected\r\n\t *\r\n\t * @return checks various conditions and returns the estimate token round.\r\n\t */\r\n\tfunction fetchEstimatedRound(uint256 amount) public constant returns (uint256 number, uint256 numTokensFrom, uint256 numTokensTo, uint256 price) {\r\n\t\tRoundStruct memory round = getEstimatedRound(amount);\r\n\t\t\r\n\t\tnumber = round.number;\r\n\t\tnumTokensFrom = round.numTokensFrom;\r\n\t\tnumTokensTo = round.numTokensTo;\r\n\t\tprice = round.price;\r\n\t}\r\n\r\n\t/**\r\n\t * @dev Function that returns the maximum token round by sending amount\r\n\t *\r\n\t * @param amount Amount of tokens expected\r\n\t *\r\n\t * @return checks various conditions and returns the maximum token round.\r\n\t */\r\n\tfunction getMaximumRound(uint256 amount) public constant returns (RoundStruct) {\r\n\t\tfor(uint256 i = 0 ; i < rounds.length ; i ++) {\r\n\t\t\tif((totalTokenSold + amount) <= rounds[i].numTokensTo) {\r\n\t\t\t\treturn rounds[i];\r\n\t\t\t}\r\n\t\t}\r\n\t}\r\n\r\n\t/**\r\n\t * @dev Function that returns the maximum token round by sending amount\r\n\t *\r\n\t * @param amount Amount of tokens expected\r\n\t *\r\n\t * @return checks various conditions and returns the maximum token round.\r\n\t */\r\n\tfunction fetchMaximumRound(uint256 amount) public constant returns (uint256 number, uint256 numTokensFrom, uint256 numTokensTo, uint256 price) {\r\n\t\tRoundStruct memory round = getMaximumRound(amount);\r\n\t\t\r\n\t\tnumber = round.number;\r\n\t\tnumTokensFrom = round.numTokensFrom;\r\n\t\tnumTokensTo = round.numTokensTo;\r\n\t\tprice = round.price;\r\n\t}\r\n\r\n\t/**\r\n\t * @dev Function that calculates the tokens which should be given to user by iterating over rounds\r\n\t *\r\n\t * @param value Amount of ethers sent\r\n\t *\r\n\t * @return checks various conditions and returns the token amount.\r\n\t */\r\n\tfunction calculate(uint256 value) public constant returns (uint256 , uint256) {\r\n\t\t// assume we are sending no tokens\t\r\n\t\tuint256 totalAmount = 0;\r\n\r\n\t\t// interate until we have some value left for buying\r\n\t\twhile(value > 0) {\r\n\t\t\t\r\n\t\t\t// get current round by passing queue value also \r\n\t\t\tRoundStruct memory estimatedRound = getEstimatedRound(totalAmount);\r\n\t\t\t\r\n\t\t\t// find tokens left in current round.\r\n\t\t\tuint256 tokensLeft = estimatedRound.numTokensTo.sub(totalTokenSold.add(totalAmount));\r\n\r\n\t\t\t// derive tokens can be bought in current round with round price \r\n\t\t\tuint256 tokensBuys = value.mul(1E18).div(estimatedRound.price);\r\n\r\n\t\t\t// check if it is last round and still value left\r\n\t\t\tif(estimatedRound.number == rounds[rounds.length - 1].number) {\r\n\t\t\t\t// its last round \r\n\r\n\t\t\t\t// no tokens left in round and still got value \r\n\t\t\t\tif(tokensLeft == 0 && value > 0) {\r\n\t\t\t\t\treturn (totalAmount , value);\r\n\t\t\t\t}\r\n\t\t\t}\r\n\r\n\t\t\t// if tokens left > tokens buy \r\n\t\t\tif(tokensLeft >= tokensBuys) {\r\n\t\t\t\ttotalAmount = totalAmount.add(tokensBuys);\r\n\t\t\t\tvalue = 0;\r\n\t\t\t\treturn (totalAmount , value);\r\n\t\t\t} else {\r\n\t\t\t\tuint256 tokensLeftValue = tokensLeft.mul(estimatedRound.price).div(1E18);\r\n\t\t\t\ttotalAmount = totalAmount.add(tokensLeft);\r\n\t\t\t\tvalue = value.sub(tokensLeftValue);\r\n\t\t\t}\r\n\t\t}\r\n\r\n\t\treturn (0 , value);\r\n\t}\r\n\t\r\n\t/**\r\n\t * @dev Default fallback method which will be called when any ethers are sent to contract\r\n\t */\r\n\tfunction() public payable {\r\n\t\tbuy(msg.sender);\r\n\t}\r\n\r\n\t/**\r\n\t * @dev Function that is called either externally or by default payable method\r\n\t *\r\n\t * @param beneficiary who should receive tokens\r\n\t */\r\n\tfunction buy(address beneficiary) public payable {\r\n\t\trequire(beneficiary != address(0));\r\n\r\n\t\t// value sent by buyer\r\n\t\tuint256 value = msg.value;\r\n\r\n\t\t// calculate token amount from the ethers sent\r\n\t\tvar (amount, leftValue) = calculate(value);\r\n\r\n\t\t// if there is any left value then return \r\n\t\tif(leftValue > 0) {\r\n\t\t\tvalue = value.sub(leftValue);\r\n\t\t\tmsg.sender.transfer(leftValue);\r\n\t\t}\r\n\r\n\t\t// validate the purchase\r\n\t\trequire(isValidPurchase(value , amount));\r\n\r\n\t\t// update the state to log the sold tokens and raised ethers.\r\n\t\ttotalTokenSold = totalTokenSold.add(amount);\r\n\t\ttotalEtherRaised = totalEtherRaised.add(value);\r\n\t\tetherRaisedPerWallet[msg.sender] = etherRaisedPerWallet[msg.sender].add(value);\r\n\r\n\t\t// transfer tokens from contract balance to beneficiary account.\r\n\t\ttoken.transfer(beneficiary, amount);\r\n\t\t\r\n\t\t// log event for token purchase\r\n\t\tTokenPurchase(msg.sender, beneficiary, value, amount, now);\r\n\t}\r\n\r\n\t/**\r\n\t* @dev transmit token for a specified address. \r\n\t* This is owner only method and should be called using web3.js if someone is trying to buy token using bitcoin or any other altcoin.\r\n\t* \r\n\t* @param _to The address to transmit to.\r\n\t* @param _value The amount to be transferred.\r\n\t* @param _message message to log after transfer.\r\n\t*/\r\n\tfunction transferManual(address _to, uint256 _value, string _message) onlyOwner public returns (bool) {\r\n\t\trequire(_to != address(0));\r\n\r\n\t\t// transfer tokens manually from contract balance\r\n\t\ttoken.transfer(_to , _value);\r\n\t\tTransferManual(msg.sender, _to, _value, _message);\r\n\r\n\t\t// update global variables\r\n\t\ttotalTokenSold = totalTokenSold.add(_value);\r\n\t\treturn true;\r\n\t}\r\n\r\n\t/**\r\n\t* @dev Method called by owner to change the wallet address\r\n\t*/\r\n\tfunction setWallet(address _wallet) onlyOwner public {\r\n\t\twallet = _wallet;\r\n\t\tWalletChange(_wallet , now);\r\n\t}\r\n\r\n\t/**\r\n\t* @dev Method called by owner of contract to withdraw funds\r\n\t*/\r\n\tfunction withdraw() onlyOwner public {\r\n\t\twallet.transfer(this.balance);\r\n\t}\r\n\r\n\t/**\r\n\t* @dev close contract \r\n\t* This will send remaining token balance to owner\r\n\t* This will distribute available funds across team members\r\n\t*/\t\r\n\tfunction close() onlyOwner public {\r\n\t\t// send remaining tokens back to owner.\r\n\t\tuint256 tokens = token.balanceOf(this); \r\n\t\ttoken.transfer(owner , tokens);\r\n\r\n\t\t// withdraw funds \r\n\t\twithdraw();\r\n\r\n\t\t// mark the flag to indicate closure of the contract\r\n\t\tisClose = true;\r\n\t}\r\n\r\n\t/**\r\n\t* @dev pause contract \r\n\t* This will mark contract as paused\r\n\t*/\t\r\n\tfunction pause() onlyOwner public {\r\n\t\t// mark the flag to indicate pause of the contract\r\n\t\tisPaused = true;\r\n\t\tPausedChange(isPaused , now);\r\n\t}\r\n\r\n\t/**\r\n\t* @dev resume contract \r\n\t* This will mark contract as resumed\r\n\t*/\t\r\n\tfunction resume() onlyOwner public {\r\n\t\t// mark the flag to indicate resume of the contract\r\n\t\tisPaused = false;\r\n\t\tPausedChange(isPaused , now);\r\n\t}\r\n}",
  "sourcePath": "/Users/Projects/BeSafe/code/v4ul7-contracts/contracts/V4UL7Sale.sol",
  "compiler": {
    "name": "solc",
    "version": "0.4.18+commit.9cf6e910.Emscripten.clang"
  },
  "schemaVersion": "1.0.1",
  "updatedAt": "2018-02-21T17:02:44.354Z"
}